{
  "contractName": "Migrations",
  "abi": [
    {
      "constant": true,
      "inputs": [],
      "name": "last_completed_migration",
      "outputs": [
        {
          "name": "",
          "type": "uint256"
        }
      ],
      "payable": false,
      "type": "function"
    },
    {
      "constant": true,
      "inputs": [],
      "name": "owner",
      "outputs": [
        {
          "name": "",
          "type": "address"
        }
      ],
      "payable": false,
      "type": "function"
    },
    {
      "constant": false,
      "inputs": [
        {
          "name": "completed",
          "type": "uint256"
        }
      ],
      "name": "setCompleted",
      "outputs": [],
      "payable": false,
      "type": "function"
    }
  ],
  "bytecode": "0x606060405233600060006101000a81548173ffffffffffffffffffffffffffffffffffffffff021916908373ffffffffffffffffffffffffffffffffffffffff160217905550341561004d57fe5b5b6101aa8061005d6000396000f30060606040526000357c0100000000000000000000000000000000000000000000000000000000900463ffffffff168063445df0ac146100515780638da5cb5b14610077578063fdacd576146100c9575bfe5b341561005957fe5b6100616100e9565b6040518082815260200191505060405180910390f35b341561007f57fe5b6100876100ef565b604051808273ffffffffffffffffffffffffffffffffffffffff1673ffffffffffffffffffffffffffffffffffffffff16815260200191505060405180910390f35b34156100d157fe5b6100e76004808035906020019091905050610115565b005b60015481565b600060009054906101000a900473ffffffffffffffffffffffffffffffffffffffff1681565b600060009054906101000a900473ffffffffffffffffffffffffffffffffffffffff1673ffffffffffffffffffffffffffffffffffffffff163373ffffffffffffffffffffffffffffffffffffffff161415156101725760006000fd5b806001819055505b5b505600a165627a7a72305820b2ab792324a7e01a5bbd4d58485682bad3214fabec0bbff51db91206a0b61b240029",
  "source": "// SPDX-License-Identifier: MIT\npragma solidity >=0.4.11 <0.8.0;\n\ncontract Migrations {\n  address public owner = msg.sender;\n  uint public last_completed_migration;\n\n  modifier restricted() {\n    require(\n      msg.sender == owner\n    );\n    _;\n  }\n\n  function setCompleted(uint completed) public restricted {\n    last_completed_migration = completed;\n  }\n}\n",
  "sourcePath": "/home/bing/Documents/teaching/poa/premissioning_contracts/contracts/Migrations.sol",
  "compiler": {
    "name": "solc",
    "version": "0.4.11+commit.68ef5810.Emscripten.clang"
  },
  "schemaVersion": "3.3.3",
  "updatedAt": "2021-02-28T16:21:29.565Z",
  "devdoc": {
    "methods": {}
  },
  "userdoc": {
    "methods": {}
  }
}