{
  "contractName": "PeerManager",
  "abi": [
    {
      "constant": true,
      "inputs": [
        {
          "name": "sl",
          "type": "bytes32"
        },
        {
          "name": "sh",
          "type": "bytes32"
        },
        {
          "name": "pl",
          "type": "bytes32"
        },
        {
          "name": "ph",
          "type": "bytes32"
        }
      ],
      "name": "connectionAllowed",
      "outputs": [
        {
          "name": "res",
          "type": "bool"
        }
      ],
      "payable": false,
      "type": "function"
    },
    {
      "inputs": [],
      "payable": false,
      "type": "constructor"
    }
  ],
  "bytecode": "0x6060604052341561000c57fe5b5b6040604051908101604052807f35d06958e17fdedbd221e78064525a258e1ba8d0a32d76b449b16c1cb0c5b9456001026000191681526020017f87b1b6aec5ff09f9061985dd4125ed79da4cb300cf03f77c1320025ac33f660e60010260001916815250600060006000815260200190815260200160002060008201518160000190600019169055602082015181600101906000191690559050506040604051908101604052807f020c03b935a1654f24746528166c2146dd54b1eb7dce1e3607d734ea598063796001026000191681526020017f0ca9d6873af052602fcd359e94dba7d4cf4489a5508653a7bfeff454a0592f1160010260001916815250600060006001815260200190815260200160002060008201518160000190600019169055602082015181600101906000191690559050506040604051908101604052807ff45a41fbe21da1bdedc41e7fe0aea9f1019ea6e23b3b89c9a5aebe3cff41fae86001026000191681526020017fcd24d1685f079eb767d0ed5c5a278089bf9c89a242fcc199cc4303b8acdae93460010260001916815250600060006002815260200190815260200160002060008201518160000190600019169055602082015181600101906000191690559050506040604051908101604052807f8f20c8167b148e2bd2837e8381e814e9f2c5de07552ebdee6f5a881eb89ca6196001026000191681526020017f7bb61cacb2d3e1ad5f5f7a89c58c28f5d13b1c988c9758edb57afe3b9c4d221260010260001916815250600060006003815260200190815260200160002060008201518160000190600019169055602082015181600101906000191690559050506040604051908101604052807f6a3c14ff9ece32d3cdd7be7a1c666ed6569f0e7365be6a443d65c579653019a06001026000191681526020017fda044be3a1067d062521bb1131037686f8d872ae167a1437dfe0412673f9dbc1600102600019168152506000600060048152602001908152602001600020600082015181600001906000191690556020820151816001019060001916905590505060016001600060058110151561032657fe5b0160005b50600060058110151561033957fe5b602091828204019190065b6101000a81548160ff02191690831515021790555060016001600060058110151561036b57fe5b0160005b50600160058110151561037e57fe5b602091828204019190065b6101000a81548160ff0219169083151502179055506001600160006005811015156103b057fe5b0160005b5060026005811015156103c357fe5b602091828204019190065b6101000a81548160ff0219169083151502179055506001600160006005811015156103f557fe5b0160005b50600360058110151561040857fe5b602091828204019190065b6101000a81548160ff02191690831515021790555060016001600060058110151561043a57fe5b0160005b50600460058110151561044d57fe5b602091828204019190065b6101000a81548160ff02191690831515021790555060016001600160058110151561047f57fe5b0160005b50600060058110151561049257fe5b602091828204019190065b6101000a81548160ff0219169083151502179055506001600160016005811015156104c457fe5b0160005b5060016005811015156104d757fe5b602091828204019190065b6101000a81548160ff02191690831515021790555060016001600160058110151561050957fe5b0160005b50600260058110151561051c57fe5b602091828204019190065b6101000a81548160ff02191690831515021790555060016001600160058110151561054e57fe5b0160005b50600360058110151561056157fe5b602091828204019190065b6101000a81548160ff02191690831515021790555060016001600160058110151561059357fe5b0160005b5060046005811015156105a657fe5b602091828204019190065b6101000a81548160ff0219169083151502179055506001600160026005811015156105d857fe5b0160005b5060006005811015156105eb57fe5b602091828204019190065b6101000a81548160ff02191690831515021790555060016001600260058110151561061d57fe5b0160005b50600160058110151561063057fe5b602091828204019190065b6101000a81548160ff02191690831515021790555060016001600260058110151561066257fe5b0160005b50600260058110151561067557fe5b602091828204019190065b6101000a81548160ff0219169083151502179055506000600160026005811015156106a757fe5b0160005b5060036005811015156106ba57fe5b602091828204019190065b6101000a81548160ff0219169083151502179055506001600160026005811015156106ec57fe5b0160005b5060046005811015156106ff57fe5b602091828204019190065b6101000a81548160ff02191690831515021790555060016001600360058110151561073157fe5b0160005b50600060058110151561074457fe5b602091828204019190065b6101000a81548160ff02191690831515021790555060016001600360058110151561077657fe5b0160005b50600160058110151561078957fe5b602091828204019190065b6101000a81548160ff0219169083151502179055506000600160036005811015156107bb57fe5b0160005b5060026005811015156107ce57fe5b602091828204019190065b6101000a81548160ff02191690831515021790555060016001600360058110151561080057fe5b0160005b50600360058110151561081357fe5b602091828204019190065b6101000a81548160ff02191690831515021790555060006001600360058110151561084557fe5b0160005b50600460058110151561085857fe5b602091828204019190065b6101000a81548160ff02191690831515021790555060016001600460058110151561088a57fe5b0160005b50600060058110151561089d57fe5b602091828204019190065b6101000a81548160ff0219169083151502179055506001600160046005811015156108cf57fe5b0160005b5060016005811015156108e257fe5b602091828204019190065b6101000a81548160ff02191690831515021790555060016001600460058110151561091457fe5b0160005b50600260058110151561092757fe5b602091828204019190065b6101000a81548160ff02191690831515021790555060006001600460058110151561095957fe5b0160005b50600360058110151561096c57fe5b602091828204019190065b6101000a81548160ff02191690831515021790555060016001600460058110151561099e57fe5b0160005b5060046005811015156109b157fe5b602091828204019190065b6101000a81548160ff0219169083151502179055505b5b6101e1806109e26000396000f30060606040526000357c0100000000000000000000000000000000000000000000000000000000900463ffffffff168063994d790a1461003b575bfe5b341561004357fe5b61008460048080356000191690602001909190803560001916906020019091908035600019169060200190919080356000191690602001909190505061009e565b604051808215151515815260200191505060405180910390f35b600060006000600060006000600060009550600094506000935060009250600091505b6005821015610153576000600083815260200190815260200160002090508060010154600019168a6000191614801561010557508060000154600019168b60001916145b1561011257819550600194505b806001015460001916886000191614801561013857508060000154600019168960001916145b1561014557819350600192505b5b81806001019250506100c1565b84158061015e575082155b1561016c57600096506101a7565b60018660058110151561017b57fe5b0160005b508460058110151561018d57fe5b602091828204019190065b9054906101000a900460ff1696505b5050505050509493505050505600a165627a7a723058201c9e28cedf974d01f661b6039f7646c4531eea24e92511a1f708f1b7490b29f70029",
  "source": "pragma solidity ^0.4.11;\n\ncontract PeerManager {\n    struct PeerInfo {\n        bytes32 public_low;\n        bytes32 public_high;\n    }\n\n    mapping(uint => PeerInfo) peers;\n\n    bool[5][5] allowedConnections;\n\n\n    function PeerManager() {\n        peers[0] = PeerInfo(0x35d06958e17fdedbd221e78064525a258e1ba8d0a32d76b449b16c1cb0c5b945, 0x87b1b6aec5ff09f9061985dd4125ed79da4cb300cf03f77c1320025ac33f660e);\n        peers[1] = PeerInfo(0x020c03b935a1654f24746528166c2146dd54b1eb7dce1e3607d734ea59806379, 0x0ca9d6873af052602fcd359e94dba7d4cf4489a5508653a7bfeff454a0592f11);\n        peers[2] = PeerInfo(0xf45a41fbe21da1bdedc41e7fe0aea9f1019ea6e23b3b89c9a5aebe3cff41fae8, 0xcd24d1685f079eb767d0ed5c5a278089bf9c89a242fcc199cc4303b8acdae934);\n        peers[3] = PeerInfo(0x8f20c8167b148e2bd2837e8381e814e9f2c5de07552ebdee6f5a881eb89ca619, 0x7bb61cacb2d3e1ad5f5f7a89c58c28f5d13b1c988c9758edb57afe3b9c4d2212);\n        peers[4] = PeerInfo(0x6a3c14ff9ece32d3cdd7be7a1c666ed6569f0e7365be6a443d65c579653019a0, 0xda044be3a1067d062521bb1131037686f8d872ae167a1437dfe0412673f9dbc1);\n\n        allowedConnections[0][0] = true;\n        allowedConnections[0][1] = true;\n        allowedConnections[0][2] = true;\n        allowedConnections[0][3] = true;\n        allowedConnections[0][4] = true;\n        allowedConnections[1][0] = true;\n        allowedConnections[1][1] = true;\n        allowedConnections[1][2] = true;\n        allowedConnections[1][3] = true;\n        allowedConnections[1][4] = true;\n        allowedConnections[2][0] = true;\n        allowedConnections[2][1] = true;\n        allowedConnections[2][2] = true;\n        allowedConnections[2][3] = false;\n        allowedConnections[2][4] = true;\n        allowedConnections[3][0] = true;\n        allowedConnections[3][1] = true;\n        allowedConnections[3][2] = false;\n        allowedConnections[3][3] = true;\n        allowedConnections[3][4] = false;\n        allowedConnections[4][0] = true;\n        allowedConnections[4][1] = true;\n        allowedConnections[4][2] = true;\n        allowedConnections[4][3] = false;\n        allowedConnections[4][4] = true;\n    }\n\n    function connectionAllowed(bytes32 sl, bytes32 sh, bytes32 pl, bytes32 ph) constant returns (bool res) {\n        uint index1 = 0;\n        bool index1_found = false;\n        uint index2 = 0;\n        bool index2_found = false;\n        for (uint i = 0; i < 5; i++) {\n            PeerInfo storage peer = peers[i];\n\n            if (sh == peer.public_high && sl == peer.public_low) {\n                index1 = i;\n                index1_found = true;\n            }\n\n            if (ph == peer.public_high && pl == peer.public_low) {\n                index2 = i;\n                index2_found = true;\n            }\n        }\n\n        if (!index1_found || !index2_found) {\n            return false;\n        }\n\n        return allowedConnections[index1][index2];\n    }\n}\n",
  "sourcePath": "/home/bing/Documents/teaching/poa/premissioning_contracts/contracts/Network.sol",
  "compiler": {
    "name": "solc",
    "version": "0.4.11+commit.68ef5810.Emscripten.clang"
  },
  "schemaVersion": "3.3.3",
  "updatedAt": "2021-02-28T16:21:29.613Z",
  "devdoc": {
    "methods": {}
  },
  "userdoc": {
    "methods": {}
  }
}