{
  "contractName": "TestOOG",
  "abi": [
    {
      "constant": false,
      "inputs": [
        {
          "name": "sender",
          "type": "address"
        }
      ],
      "name": "allowedTxTypes",
      "outputs": [
        {
          "name": "",
          "type": "uint32"
        }
      ],
      "payable": false,
      "type": "function"
    }
  ],
  "bytecode": "0x6060604052341561000c57fe5b5b6101c28061001c6000396000f30060606040526000357c0100000000000000000000000000000000000000000000000000000000900463ffffffff168063e17512211461003b575bfe5b341561004357fe5b61006f600480803573ffffffffffffffffffffffffffffffffffffffff16906020019091905050610091565b604051808263ffffffff1663ffffffff16815260200191505060405180910390f35b6000734a2667b4340cf180eb832e6c623f1ec27e88e33d73ffffffffffffffffffffffffffffffffffffffff168273ffffffffffffffffffffffffffffffffffffffff1614156100e75763ffffffff9050610191565b73c7572bf6a8ad93daf61af35f7546b4badcd7f69273ffffffffffffffffffffffffffffffffffffffff168273ffffffffffffffffffffffffffffffffffffffff16141561013b5760026001179050610191565b736813eb9362372eef6200f3b1dbc3f819671cba6973ffffffffffffffffffffffffffffffffffffffff168273ffffffffffffffffffffffffffffffffffffffff16141561018c5760019050610191565b600090505b9190505600a165627a7a72305820d7214b37067ac45db82b5d9df404f4a7f39a22e10c919f6e04e4522da5cf2f9e0029",
  "source": "pragma solidity ^0.4.11;\n\ncontract TestOOG {\n    /// Allowed transaction types mask\n    uint32 constant None = 0;\n    uint32 constant All = 0xffffffff;\n    uint32 constant Basic = 0x01;\n    uint32 constant Call = 0x02;\n    uint32 constant Create = 0x04;\n    uint32 constant Private = 0x08;\n\n    function allowedTxTypes(address sender) public returns (uint32)\n    {\n        if (sender == 0x4a2667B4340Cf180eB832e6C623F1eC27E88e33d) return All; // Secret: 0x00..01\n        if (sender == 0xC7572bf6A8Ad93Daf61aF35F7546B4BADCD7f692) return Basic | Call; // Secret: 0x00..02\n        if (sender == 0x6813Eb9362372EEF6200f3b1dbC3f819671cBA69) return Basic; // Secret: 0x00..03\n        return None;\n    }\n}\n",
  "sourcePath": "/home/bing/Documents/teaching/poa/premissioning_contracts/contracts/Transaction.sol",
  "compiler": {
    "name": "solc",
    "version": "0.4.11+commit.68ef5810.Emscripten.clang"
  },
  "schemaVersion": "3.3.3",
  "updatedAt": "2021-02-28T16:21:29.616Z",
  "devdoc": {
    "methods": {}
  },
  "userdoc": {
    "methods": {}
  }
}