{
	"data": {
		"bytecode": {
			"linkReferences": {},
			"object": "6060604052341561000c57fe5b5b6040604051908101604052807fe08dcebce920a70f9f7b3925346d0d81fe30afdf5a4fddbff7e405098678073e6001026000191681526020017f7690873787ad8cca2946ad6a758dd918eb5d6d385344515e7228c64709b0334660010260001916815250600060006000815260200190815260200160002060008201518160000190600019169055602082015181600101906000191690559050506040604051908101604052807f2a295049dac64bc948db3f5040fcb39952e857de7dd8c5b0028255048de0e9bd6001026000191681526020017f1346ac2229d1b36514476df6393eee83c65e9e10bb07479906eb8cdb8ce2166560010260001916815250600060006001815260200190815260200160002060008201518160000190600019169055602082015181600101906000191690559050506040604051908101604052807fad4abc891debed73584f1ecdc353038486b8c4855d94e0f2bede660d0d606fb96001026000191681526020017f2d0da47db997bbdbcfaa107bc63deb5325dba0afa5914904fa488b645b6b6aec60010260001916815250600060006002815260200190815260200160002060008201518160000190600019169055602082015181600101906000191690559050506040604051908101604052807f879d61e120dce78bb57a5d3d280b540bd66c5d9756b60325b25b11698bbb5d5d6001026000191681526020017f124abcfa32792aab9cafe3898d174992e3fe6ae7c86dcefa98edb1e0d964086860010260001916815250600060006003815260200190815260200160002060008201518160000190600019169055602082015181600101906000191690559050506040604051908101604052807f83e50951d3e08083df25712385b8a20d77c475fb0468c35b500cfe6634db0a886001026000191681526020017f3d7917972f72a77231927ec31838361565337a651ca6944fb0a266e38f43eae1600102600019168152506000600060048152602001908152602001600020600082015181600001906000191690556020820151816001019060001916905590505060016001600060058110151561032657fe5b0160005b50600060058110151561033957fe5b602091828204019190065b6101000a81548160ff02191690831515021790555060016001600060058110151561036b57fe5b0160005b50600160058110151561037e57fe5b602091828204019190065b6101000a81548160ff0219169083151502179055506001600160006005811015156103b057fe5b0160005b5060026005811015156103c357fe5b602091828204019190065b6101000a81548160ff0219169083151502179055506001600160006005811015156103f557fe5b0160005b50600360058110151561040857fe5b602091828204019190065b6101000a81548160ff02191690831515021790555060016001600060058110151561043a57fe5b0160005b50600460058110151561044d57fe5b602091828204019190065b6101000a81548160ff02191690831515021790555060016001600160058110151561047f57fe5b0160005b50600060058110151561049257fe5b602091828204019190065b6101000a81548160ff0219169083151502179055506001600160016005811015156104c457fe5b0160005b5060016005811015156104d757fe5b602091828204019190065b6101000a81548160ff02191690831515021790555060016001600160058110151561050957fe5b0160005b50600260058110151561051c57fe5b602091828204019190065b6101000a81548160ff02191690831515021790555060016001600160058110151561054e57fe5b0160005b50600360058110151561056157fe5b602091828204019190065b6101000a81548160ff02191690831515021790555060016001600160058110151561059357fe5b0160005b5060046005811015156105a657fe5b602091828204019190065b6101000a81548160ff0219169083151502179055506001600160026005811015156105d857fe5b0160005b5060006005811015156105eb57fe5b602091828204019190065b6101000a81548160ff02191690831515021790555060016001600260058110151561061d57fe5b0160005b50600160058110151561063057fe5b602091828204019190065b6101000a81548160ff02191690831515021790555060016001600260058110151561066257fe5b0160005b50600260058110151561067557fe5b602091828204019190065b6101000a81548160ff0219169083151502179055506000600160026005811015156106a757fe5b0160005b5060036005811015156106ba57fe5b602091828204019190065b6101000a81548160ff0219169083151502179055506001600160026005811015156106ec57fe5b0160005b5060046005811015156106ff57fe5b602091828204019190065b6101000a81548160ff02191690831515021790555060016001600360058110151561073157fe5b0160005b50600060058110151561074457fe5b602091828204019190065b6101000a81548160ff02191690831515021790555060016001600360058110151561077657fe5b0160005b50600160058110151561078957fe5b602091828204019190065b6101000a81548160ff0219169083151502179055506000600160036005811015156107bb57fe5b0160005b5060026005811015156107ce57fe5b602091828204019190065b6101000a81548160ff02191690831515021790555060016001600360058110151561080057fe5b0160005b50600360058110151561081357fe5b602091828204019190065b6101000a81548160ff02191690831515021790555060006001600360058110151561084557fe5b0160005b50600460058110151561085857fe5b602091828204019190065b6101000a81548160ff02191690831515021790555060016001600460058110151561088a57fe5b0160005b50600060058110151561089d57fe5b602091828204019190065b6101000a81548160ff0219169083151502179055506001600160046005811015156108cf57fe5b0160005b5060016005811015156108e257fe5b602091828204019190065b6101000a81548160ff02191690831515021790555060016001600460058110151561091457fe5b0160005b50600260058110151561092757fe5b602091828204019190065b6101000a81548160ff02191690831515021790555060006001600460058110151561095957fe5b0160005b50600360058110151561096c57fe5b602091828204019190065b6101000a81548160ff02191690831515021790555060016001600460058110151561099e57fe5b0160005b5060046005811015156109b157fe5b602091828204019190065b6101000a81548160ff0219169083151502179055505b5b6101e1806109e26000396000f30060606040526000357c0100000000000000000000000000000000000000000000000000000000900463ffffffff168063994d790a1461003b575bfe5b341561004357fe5b61008460048080356000191690602001909190803560001916906020019091908035600019169060200190919080356000191690602001909190505061009e565b604051808215151515815260200191505060405180910390f35b600060006000600060006000600060009550600094506000935060009250600091505b6005821015610153576000600083815260200190815260200160002090508060010154600019168a6000191614801561010557508060000154600019168b60001916145b1561011257819550600194505b806001015460001916886000191614801561013857508060000154600019168960001916145b1561014557819350600192505b5b81806001019250506100c1565b84158061015e575082155b1561016c57600096506101a7565b60018660058110151561017b57fe5b0160005b508460058110151561018d57fe5b602091828204019190065b9054906101000a900460ff1696505b5050505050509493505050505600a165627a7a72305820e2373b0d5cff6a1c4e2614afc76a73e35801f4f44bfaefcc9e8eea6a6d719e230029",
			"opcodes": "PUSH1 0x60 PUSH1 0x40 MSTORE CALLVALUE ISZERO PUSH2 0xC JUMPI INVALID JUMPDEST JUMPDEST PUSH1 0x40 PUSH1 0x40 MLOAD SWAP1 DUP2 ADD PUSH1 0x40 MSTORE DUP1 PUSH32 0xE08DCEBCE920A70F9F7B3925346D0D81FE30AFDF5A4FDDBFF7E405098678073E PUSH1 0x1 MUL PUSH1 0x0 NOT AND DUP2 MSTORE PUSH1 0x20 ADD PUSH32 0x7690873787AD8CCA2946AD6A758DD918EB5D6D385344515E7228C64709B03346 PUSH1 0x1 MUL PUSH1 0x0 NOT AND DUP2 MSTORE POP PUSH1 0x0 PUSH1 0x0 PUSH1 0x0 DUP2 MSTORE PUSH1 0x20 ADD SWAP1 DUP2 MSTORE PUSH1 0x20 ADD PUSH1 0x0 SHA3 PUSH1 0x0 DUP3 ADD MLOAD DUP2 PUSH1 0x0 ADD SWAP1 PUSH1 0x0 NOT AND SWAP1 SSTORE PUSH1 0x20 DUP3 ADD MLOAD DUP2 PUSH1 0x1 ADD SWAP1 PUSH1 0x0 NOT AND SWAP1 SSTORE SWAP1 POP POP PUSH1 0x40 PUSH1 0x40 MLOAD SWAP1 DUP2 ADD PUSH1 0x40 MSTORE DUP1 PUSH32 0x2A295049DAC64BC948DB3F5040FCB39952E857DE7DD8C5B0028255048DE0E9BD PUSH1 0x1 MUL PUSH1 0x0 NOT AND DUP2 MSTORE PUSH1 0x20 ADD PUSH32 0x1346AC2229D1B36514476DF6393EEE83C65E9E10BB07479906EB8CDB8CE21665 PUSH1 0x1 MUL PUSH1 0x0 NOT AND DUP2 MSTORE POP PUSH1 0x0 PUSH1 0x0 PUSH1 0x1 DUP2 MSTORE PUSH1 0x20 ADD SWAP1 DUP2 MSTORE PUSH1 0x20 ADD PUSH1 0x0 SHA3 PUSH1 0x0 DUP3 ADD MLOAD DUP2 PUSH1 0x0 ADD SWAP1 PUSH1 0x0 NOT AND SWAP1 SSTORE PUSH1 0x20 DUP3 ADD MLOAD DUP2 PUSH1 0x1 ADD SWAP1 PUSH1 0x0 NOT AND SWAP1 SSTORE SWAP1 POP POP PUSH1 0x40 PUSH1 0x40 MLOAD SWAP1 DUP2 ADD PUSH1 0x40 MSTORE DUP1 PUSH32 0xAD4ABC891DEBED73584F1ECDC353038486B8C4855D94E0F2BEDE660D0D606FB9 PUSH1 0x1 MUL PUSH1 0x0 NOT AND DUP2 MSTORE PUSH1 0x20 ADD PUSH32 0x2D0DA47DB997BBDBCFAA107BC63DEB5325DBA0AFA5914904FA488B645B6B6AEC PUSH1 0x1 MUL PUSH1 0x0 NOT AND DUP2 MSTORE POP PUSH1 0x0 PUSH1 0x0 PUSH1 0x2 DUP2 MSTORE PUSH1 0x20 ADD SWAP1 DUP2 MSTORE PUSH1 0x20 ADD PUSH1 0x0 SHA3 PUSH1 0x0 DUP3 ADD MLOAD DUP2 PUSH1 0x0 ADD SWAP1 PUSH1 0x0 NOT AND SWAP1 SSTORE PUSH1 0x20 DUP3 ADD MLOAD DUP2 PUSH1 0x1 ADD SWAP1 PUSH1 0x0 NOT AND SWAP1 SSTORE SWAP1 POP POP PUSH1 0x40 PUSH1 0x40 MLOAD SWAP1 DUP2 ADD PUSH1 0x40 MSTORE DUP1 PUSH32 0x879D61E120DCE78BB57A5D3D280B540BD66C5D9756B60325B25B11698BBB5D5D PUSH1 0x1 MUL PUSH1 0x0 NOT AND DUP2 MSTORE PUSH1 0x20 ADD PUSH32 0x124ABCFA32792AAB9CAFE3898D174992E3FE6AE7C86DCEFA98EDB1E0D9640868 PUSH1 0x1 MUL PUSH1 0x0 NOT AND DUP2 MSTORE POP PUSH1 0x0 PUSH1 0x0 PUSH1 0x3 DUP2 MSTORE PUSH1 0x20 ADD SWAP1 DUP2 MSTORE PUSH1 0x20 ADD PUSH1 0x0 SHA3 PUSH1 0x0 DUP3 ADD MLOAD DUP2 PUSH1 0x0 ADD SWAP1 PUSH1 0x0 NOT AND SWAP1 SSTORE PUSH1 0x20 DUP3 ADD MLOAD DUP2 PUSH1 0x1 ADD SWAP1 PUSH1 0x0 NOT AND SWAP1 SSTORE SWAP1 POP POP PUSH1 0x40 PUSH1 0x40 MLOAD SWAP1 DUP2 ADD PUSH1 0x40 MSTORE DUP1 PUSH32 0x83E50951D3E08083DF25712385B8A20D77C475FB0468C35B500CFE6634DB0A88 PUSH1 0x1 MUL PUSH1 0x0 NOT AND DUP2 MSTORE PUSH1 0x20 ADD PUSH32 0x3D7917972F72A77231927EC31838361565337A651CA6944FB0A266E38F43EAE1 PUSH1 0x1 MUL PUSH1 0x0 NOT AND DUP2 MSTORE POP PUSH1 0x0 PUSH1 0x0 PUSH1 0x4 DUP2 MSTORE PUSH1 0x20 ADD SWAP1 DUP2 MSTORE PUSH1 0x20 ADD PUSH1 0x0 SHA3 PUSH1 0x0 DUP3 ADD MLOAD DUP2 PUSH1 0x0 ADD SWAP1 PUSH1 0x0 NOT AND SWAP1 SSTORE PUSH1 0x20 DUP3 ADD MLOAD DUP2 PUSH1 0x1 ADD SWAP1 PUSH1 0x0 NOT AND SWAP1 SSTORE SWAP1 POP POP PUSH1 0x1 PUSH1 0x1 PUSH1 0x0 PUSH1 0x5 DUP2 LT ISZERO ISZERO PUSH2 0x326 JUMPI INVALID JUMPDEST ADD PUSH1 0x0 JUMPDEST POP PUSH1 0x0 PUSH1 0x5 DUP2 LT ISZERO ISZERO PUSH2 0x339 JUMPI INVALID JUMPDEST PUSH1 0x20 SWAP2 DUP3 DUP3 DIV ADD SWAP2 SWAP1 MOD JUMPDEST PUSH2 0x100 EXP DUP2 SLOAD DUP2 PUSH1 0xFF MUL NOT AND SWAP1 DUP4 ISZERO ISZERO MUL OR SWAP1 SSTORE POP PUSH1 0x1 PUSH1 0x1 PUSH1 0x0 PUSH1 0x5 DUP2 LT ISZERO ISZERO PUSH2 0x36B JUMPI INVALID JUMPDEST ADD PUSH1 0x0 JUMPDEST POP PUSH1 0x1 PUSH1 0x5 DUP2 LT ISZERO ISZERO PUSH2 0x37E JUMPI INVALID JUMPDEST PUSH1 0x20 SWAP2 DUP3 DUP3 DIV ADD SWAP2 SWAP1 MOD JUMPDEST PUSH2 0x100 EXP DUP2 SLOAD DUP2 PUSH1 0xFF MUL NOT AND SWAP1 DUP4 ISZERO ISZERO MUL OR SWAP1 SSTORE POP PUSH1 0x1 PUSH1 0x1 PUSH1 0x0 PUSH1 0x5 DUP2 LT ISZERO ISZERO PUSH2 0x3B0 JUMPI INVALID JUMPDEST ADD PUSH1 0x0 JUMPDEST POP PUSH1 0x2 PUSH1 0x5 DUP2 LT ISZERO ISZERO PUSH2 0x3C3 JUMPI INVALID JUMPDEST PUSH1 0x20 SWAP2 DUP3 DUP3 DIV ADD SWAP2 SWAP1 MOD JUMPDEST PUSH2 0x100 EXP DUP2 SLOAD DUP2 PUSH1 0xFF MUL NOT AND SWAP1 DUP4 ISZERO ISZERO MUL OR SWAP1 SSTORE POP PUSH1 0x1 PUSH1 0x1 PUSH1 0x0 PUSH1 0x5 DUP2 LT ISZERO ISZERO PUSH2 0x3F5 JUMPI INVALID JUMPDEST ADD PUSH1 0x0 JUMPDEST POP PUSH1 0x3 PUSH1 0x5 DUP2 LT ISZERO ISZERO PUSH2 0x408 JUMPI INVALID JUMPDEST PUSH1 0x20 SWAP2 DUP3 DUP3 DIV ADD SWAP2 SWAP1 MOD JUMPDEST PUSH2 0x100 EXP DUP2 SLOAD DUP2 PUSH1 0xFF MUL NOT AND SWAP1 DUP4 ISZERO ISZERO MUL OR SWAP1 SSTORE POP PUSH1 0x1 PUSH1 0x1 PUSH1 0x0 PUSH1 0x5 DUP2 LT ISZERO ISZERO PUSH2 0x43A JUMPI INVALID JUMPDEST ADD PUSH1 0x0 JUMPDEST POP PUSH1 0x4 PUSH1 0x5 DUP2 LT ISZERO ISZERO PUSH2 0x44D JUMPI INVALID JUMPDEST PUSH1 0x20 SWAP2 DUP3 DUP3 DIV ADD SWAP2 SWAP1 MOD JUMPDEST PUSH2 0x100 EXP DUP2 SLOAD DUP2 PUSH1 0xFF MUL NOT AND SWAP1 DUP4 ISZERO ISZERO MUL OR SWAP1 SSTORE POP PUSH1 0x1 PUSH1 0x1 PUSH1 0x1 PUSH1 0x5 DUP2 LT ISZERO ISZERO PUSH2 0x47F JUMPI INVALID JUMPDEST ADD PUSH1 0x0 JUMPDEST POP PUSH1 0x0 PUSH1 0x5 DUP2 LT ISZERO ISZERO PUSH2 0x492 JUMPI INVALID JUMPDEST PUSH1 0x20 SWAP2 DUP3 DUP3 DIV ADD SWAP2 SWAP1 MOD JUMPDEST PUSH2 0x100 EXP DUP2 SLOAD DUP2 PUSH1 0xFF MUL NOT AND SWAP1 DUP4 ISZERO ISZERO MUL OR SWAP1 SSTORE POP PUSH1 0x1 PUSH1 0x1 PUSH1 0x1 PUSH1 0x5 DUP2 LT ISZERO ISZERO PUSH2 0x4C4 JUMPI INVALID JUMPDEST ADD PUSH1 0x0 JUMPDEST POP PUSH1 0x1 PUSH1 0x5 DUP2 LT ISZERO ISZERO PUSH2 0x4D7 JUMPI INVALID JUMPDEST PUSH1 0x20 SWAP2 DUP3 DUP3 DIV ADD SWAP2 SWAP1 MOD JUMPDEST PUSH2 0x100 EXP DUP2 SLOAD DUP2 PUSH1 0xFF MUL NOT AND SWAP1 DUP4 ISZERO ISZERO MUL OR SWAP1 SSTORE POP PUSH1 0x1 PUSH1 0x1 PUSH1 0x1 PUSH1 0x5 DUP2 LT ISZERO ISZERO PUSH2 0x509 JUMPI INVALID JUMPDEST ADD PUSH1 0x0 JUMPDEST POP PUSH1 0x2 PUSH1 0x5 DUP2 LT ISZERO ISZERO PUSH2 0x51C JUMPI INVALID JUMPDEST PUSH1 0x20 SWAP2 DUP3 DUP3 DIV ADD SWAP2 SWAP1 MOD JUMPDEST PUSH2 0x100 EXP DUP2 SLOAD DUP2 PUSH1 0xFF MUL NOT AND SWAP1 DUP4 ISZERO ISZERO MUL OR SWAP1 SSTORE POP PUSH1 0x1 PUSH1 0x1 PUSH1 0x1 PUSH1 0x5 DUP2 LT ISZERO ISZERO PUSH2 0x54E JUMPI INVALID JUMPDEST ADD PUSH1 0x0 JUMPDEST POP PUSH1 0x3 PUSH1 0x5 DUP2 LT ISZERO ISZERO PUSH2 0x561 JUMPI INVALID JUMPDEST PUSH1 0x20 SWAP2 DUP3 DUP3 DIV ADD SWAP2 SWAP1 MOD JUMPDEST PUSH2 0x100 EXP DUP2 SLOAD DUP2 PUSH1 0xFF MUL NOT AND SWAP1 DUP4 ISZERO ISZERO MUL OR SWAP1 SSTORE POP PUSH1 0x1 PUSH1 0x1 PUSH1 0x1 PUSH1 0x5 DUP2 LT ISZERO ISZERO PUSH2 0x593 JUMPI INVALID JUMPDEST ADD PUSH1 0x0 JUMPDEST POP PUSH1 0x4 PUSH1 0x5 DUP2 LT ISZERO ISZERO PUSH2 0x5A6 JUMPI INVALID JUMPDEST PUSH1 0x20 SWAP2 DUP3 DUP3 DIV ADD SWAP2 SWAP1 MOD JUMPDEST PUSH2 0x100 EXP DUP2 SLOAD DUP2 PUSH1 0xFF MUL NOT AND SWAP1 DUP4 ISZERO ISZERO MUL OR SWAP1 SSTORE POP PUSH1 0x1 PUSH1 0x1 PUSH1 0x2 PUSH1 0x5 DUP2 LT ISZERO ISZERO PUSH2 0x5D8 JUMPI INVALID JUMPDEST ADD PUSH1 0x0 JUMPDEST POP PUSH1 0x0 PUSH1 0x5 DUP2 LT ISZERO ISZERO PUSH2 0x5EB JUMPI INVALID JUMPDEST PUSH1 0x20 SWAP2 DUP3 DUP3 DIV ADD SWAP2 SWAP1 MOD JUMPDEST PUSH2 0x100 EXP DUP2 SLOAD DUP2 PUSH1 0xFF MUL NOT AND SWAP1 DUP4 ISZERO ISZERO MUL OR SWAP1 SSTORE POP PUSH1 0x1 PUSH1 0x1 PUSH1 0x2 PUSH1 0x5 DUP2 LT ISZERO ISZERO PUSH2 0x61D JUMPI INVALID JUMPDEST ADD PUSH1 0x0 JUMPDEST POP PUSH1 0x1 PUSH1 0x5 DUP2 LT ISZERO ISZERO PUSH2 0x630 JUMPI INVALID JUMPDEST PUSH1 0x20 SWAP2 DUP3 DUP3 DIV ADD SWAP2 SWAP1 MOD JUMPDEST PUSH2 0x100 EXP DUP2 SLOAD DUP2 PUSH1 0xFF MUL NOT AND SWAP1 DUP4 ISZERO ISZERO MUL OR SWAP1 SSTORE POP PUSH1 0x1 PUSH1 0x1 PUSH1 0x2 PUSH1 0x5 DUP2 LT ISZERO ISZERO PUSH2 0x662 JUMPI INVALID JUMPDEST ADD PUSH1 0x0 JUMPDEST POP PUSH1 0x2 PUSH1 0x5 DUP2 LT ISZERO ISZERO PUSH2 0x675 JUMPI INVALID JUMPDEST PUSH1 0x20 SWAP2 DUP3 DUP3 DIV ADD SWAP2 SWAP1 MOD JUMPDEST PUSH2 0x100 EXP DUP2 SLOAD DUP2 PUSH1 0xFF MUL NOT AND SWAP1 DUP4 ISZERO ISZERO MUL OR SWAP1 SSTORE POP PUSH1 0x0 PUSH1 0x1 PUSH1 0x2 PUSH1 0x5 DUP2 LT ISZERO ISZERO PUSH2 0x6A7 JUMPI INVALID JUMPDEST ADD PUSH1 0x0 JUMPDEST POP PUSH1 0x3 PUSH1 0x5 DUP2 LT ISZERO ISZERO PUSH2 0x6BA JUMPI INVALID JUMPDEST PUSH1 0x20 SWAP2 DUP3 DUP3 DIV ADD SWAP2 SWAP1 MOD JUMPDEST PUSH2 0x100 EXP DUP2 SLOAD DUP2 PUSH1 0xFF MUL NOT AND SWAP1 DUP4 ISZERO ISZERO MUL OR SWAP1 SSTORE POP PUSH1 0x1 PUSH1 0x1 PUSH1 0x2 PUSH1 0x5 DUP2 LT ISZERO ISZERO PUSH2 0x6EC JUMPI INVALID JUMPDEST ADD PUSH1 0x0 JUMPDEST POP PUSH1 0x4 PUSH1 0x5 DUP2 LT ISZERO ISZERO PUSH2 0x6FF JUMPI INVALID JUMPDEST PUSH1 0x20 SWAP2 DUP3 DUP3 DIV ADD SWAP2 SWAP1 MOD JUMPDEST PUSH2 0x100 EXP DUP2 SLOAD DUP2 PUSH1 0xFF MUL NOT AND SWAP1 DUP4 ISZERO ISZERO MUL OR SWAP1 SSTORE POP PUSH1 0x1 PUSH1 0x1 PUSH1 0x3 PUSH1 0x5 DUP2 LT ISZERO ISZERO PUSH2 0x731 JUMPI INVALID JUMPDEST ADD PUSH1 0x0 JUMPDEST POP PUSH1 0x0 PUSH1 0x5 DUP2 LT ISZERO ISZERO PUSH2 0x744 JUMPI INVALID JUMPDEST PUSH1 0x20 SWAP2 DUP3 DUP3 DIV ADD SWAP2 SWAP1 MOD JUMPDEST PUSH2 0x100 EXP DUP2 SLOAD DUP2 PUSH1 0xFF MUL NOT AND SWAP1 DUP4 ISZERO ISZERO MUL OR SWAP1 SSTORE POP PUSH1 0x1 PUSH1 0x1 PUSH1 0x3 PUSH1 0x5 DUP2 LT ISZERO ISZERO PUSH2 0x776 JUMPI INVALID JUMPDEST ADD PUSH1 0x0 JUMPDEST POP PUSH1 0x1 PUSH1 0x5 DUP2 LT ISZERO ISZERO PUSH2 0x789 JUMPI INVALID JUMPDEST PUSH1 0x20 SWAP2 DUP3 DUP3 DIV ADD SWAP2 SWAP1 MOD JUMPDEST PUSH2 0x100 EXP DUP2 SLOAD DUP2 PUSH1 0xFF MUL NOT AND SWAP1 DUP4 ISZERO ISZERO MUL OR SWAP1 SSTORE POP PUSH1 0x0 PUSH1 0x1 PUSH1 0x3 PUSH1 0x5 DUP2 LT ISZERO ISZERO PUSH2 0x7BB JUMPI INVALID JUMPDEST ADD PUSH1 0x0 JUMPDEST POP PUSH1 0x2 PUSH1 0x5 DUP2 LT ISZERO ISZERO PUSH2 0x7CE JUMPI INVALID JUMPDEST PUSH1 0x20 SWAP2 DUP3 DUP3 DIV ADD SWAP2 SWAP1 MOD JUMPDEST PUSH2 0x100 EXP DUP2 SLOAD DUP2 PUSH1 0xFF MUL NOT AND SWAP1 DUP4 ISZERO ISZERO MUL OR SWAP1 SSTORE POP PUSH1 0x1 PUSH1 0x1 PUSH1 0x3 PUSH1 0x5 DUP2 LT ISZERO ISZERO PUSH2 0x800 JUMPI INVALID JUMPDEST ADD PUSH1 0x0 JUMPDEST POP PUSH1 0x3 PUSH1 0x5 DUP2 LT ISZERO ISZERO PUSH2 0x813 JUMPI INVALID JUMPDEST PUSH1 0x20 SWAP2 DUP3 DUP3 DIV ADD SWAP2 SWAP1 MOD JUMPDEST PUSH2 0x100 EXP DUP2 SLOAD DUP2 PUSH1 0xFF MUL NOT AND SWAP1 DUP4 ISZERO ISZERO MUL OR SWAP1 SSTORE POP PUSH1 0x0 PUSH1 0x1 PUSH1 0x3 PUSH1 0x5 DUP2 LT ISZERO ISZERO PUSH2 0x845 JUMPI INVALID JUMPDEST ADD PUSH1 0x0 JUMPDEST POP PUSH1 0x4 PUSH1 0x5 DUP2 LT ISZERO ISZERO PUSH2 0x858 JUMPI INVALID JUMPDEST PUSH1 0x20 SWAP2 DUP3 DUP3 DIV ADD SWAP2 SWAP1 MOD JUMPDEST PUSH2 0x100 EXP DUP2 SLOAD DUP2 PUSH1 0xFF MUL NOT AND SWAP1 DUP4 ISZERO ISZERO MUL OR SWAP1 SSTORE POP PUSH1 0x1 PUSH1 0x1 PUSH1 0x4 PUSH1 0x5 DUP2 LT ISZERO ISZERO PUSH2 0x88A JUMPI INVALID JUMPDEST ADD PUSH1 0x0 JUMPDEST POP PUSH1 0x0 PUSH1 0x5 DUP2 LT ISZERO ISZERO PUSH2 0x89D JUMPI INVALID JUMPDEST PUSH1 0x20 SWAP2 DUP3 DUP3 DIV ADD SWAP2 SWAP1 MOD JUMPDEST PUSH2 0x100 EXP DUP2 SLOAD DUP2 PUSH1 0xFF MUL NOT AND SWAP1 DUP4 ISZERO ISZERO MUL OR SWAP1 SSTORE POP PUSH1 0x1 PUSH1 0x1 PUSH1 0x4 PUSH1 0x5 DUP2 LT ISZERO ISZERO PUSH2 0x8CF JUMPI INVALID JUMPDEST ADD PUSH1 0x0 JUMPDEST POP PUSH1 0x1 PUSH1 0x5 DUP2 LT ISZERO ISZERO PUSH2 0x8E2 JUMPI INVALID JUMPDEST PUSH1 0x20 SWAP2 DUP3 DUP3 DIV ADD SWAP2 SWAP1 MOD JUMPDEST PUSH2 0x100 EXP DUP2 SLOAD DUP2 PUSH1 0xFF MUL NOT AND SWAP1 DUP4 ISZERO ISZERO MUL OR SWAP1 SSTORE POP PUSH1 0x1 PUSH1 0x1 PUSH1 0x4 PUSH1 0x5 DUP2 LT ISZERO ISZERO PUSH2 0x914 JUMPI INVALID JUMPDEST ADD PUSH1 0x0 JUMPDEST POP PUSH1 0x2 PUSH1 0x5 DUP2 LT ISZERO ISZERO PUSH2 0x927 JUMPI INVALID JUMPDEST PUSH1 0x20 SWAP2 DUP3 DUP3 DIV ADD SWAP2 SWAP1 MOD JUMPDEST PUSH2 0x100 EXP DUP2 SLOAD DUP2 PUSH1 0xFF MUL NOT AND SWAP1 DUP4 ISZERO ISZERO MUL OR SWAP1 SSTORE POP PUSH1 0x0 PUSH1 0x1 PUSH1 0x4 PUSH1 0x5 DUP2 LT ISZERO ISZERO PUSH2 0x959 JUMPI INVALID JUMPDEST ADD PUSH1 0x0 JUMPDEST POP PUSH1 0x3 PUSH1 0x5 DUP2 LT ISZERO ISZERO PUSH2 0x96C JUMPI INVALID JUMPDEST PUSH1 0x20 SWAP2 DUP3 DUP3 DIV ADD SWAP2 SWAP1 MOD JUMPDEST PUSH2 0x100 EXP DUP2 SLOAD DUP2 PUSH1 0xFF MUL NOT AND SWAP1 DUP4 ISZERO ISZERO MUL OR SWAP1 SSTORE POP PUSH1 0x1 PUSH1 0x1 PUSH1 0x4 PUSH1 0x5 DUP2 LT ISZERO ISZERO PUSH2 0x99E JUMPI INVALID JUMPDEST ADD PUSH1 0x0 JUMPDEST POP PUSH1 0x4 PUSH1 0x5 DUP2 LT ISZERO ISZERO PUSH2 0x9B1 JUMPI INVALID JUMPDEST PUSH1 0x20 SWAP2 DUP3 DUP3 DIV ADD SWAP2 SWAP1 MOD JUMPDEST PUSH2 0x100 EXP DUP2 SLOAD DUP2 PUSH1 0xFF MUL NOT AND SWAP1 DUP4 ISZERO ISZERO MUL OR SWAP1 SSTORE POP JUMPDEST JUMPDEST PUSH2 0x1E1 DUP1 PUSH2 0x9E2 PUSH1 0x0 CODECOPY PUSH1 0x0 RETURN STOP PUSH1 0x60 PUSH1 0x40 MSTORE PUSH1 0x0 CALLDATALOAD PUSH29 0x100000000000000000000000000000000000000000000000000000000 SWAP1 DIV PUSH4 0xFFFFFFFF AND DUP1 PUSH4 0x994D790A EQ PUSH2 0x3B JUMPI JUMPDEST INVALID JUMPDEST CALLVALUE ISZERO PUSH2 0x43 JUMPI INVALID JUMPDEST PUSH2 0x84 PUSH1 0x4 DUP1 DUP1 CALLDATALOAD PUSH1 0x0 NOT AND SWAP1 PUSH1 0x20 ADD SWAP1 SWAP2 SWAP1 DUP1 CALLDATALOAD PUSH1 0x0 NOT AND SWAP1 PUSH1 0x20 ADD SWAP1 SWAP2 SWAP1 DUP1 CALLDATALOAD PUSH1 0x0 NOT AND SWAP1 PUSH1 0x20 ADD SWAP1 SWAP2 SWAP1 DUP1 CALLDATALOAD PUSH1 0x0 NOT AND SWAP1 PUSH1 0x20 ADD SWAP1 SWAP2 SWAP1 POP POP PUSH2 0x9E JUMP JUMPDEST PUSH1 0x40 MLOAD DUP1 DUP3 ISZERO ISZERO ISZERO ISZERO DUP2 MSTORE PUSH1 0x20 ADD SWAP2 POP POP PUSH1 0x40 MLOAD DUP1 SWAP2 SUB SWAP1 RETURN JUMPDEST PUSH1 0x0 PUSH1 0x0 PUSH1 0x0 PUSH1 0x0 PUSH1 0x0 PUSH1 0x0 PUSH1 0x0 PUSH1 0x0 SWAP6 POP PUSH1 0x0 SWAP5 POP PUSH1 0x0 SWAP4 POP PUSH1 0x0 SWAP3 POP PUSH1 0x0 SWAP2 POP JUMPDEST PUSH1 0x5 DUP3 LT ISZERO PUSH2 0x153 JUMPI PUSH1 0x0 PUSH1 0x0 DUP4 DUP2 MSTORE PUSH1 0x20 ADD SWAP1 DUP2 MSTORE PUSH1 0x20 ADD PUSH1 0x0 SHA3 SWAP1 POP DUP1 PUSH1 0x1 ADD SLOAD PUSH1 0x0 NOT AND DUP11 PUSH1 0x0 NOT AND EQ DUP1 ISZERO PUSH2 0x105 JUMPI POP DUP1 PUSH1 0x0 ADD SLOAD PUSH1 0x0 NOT AND DUP12 PUSH1 0x0 NOT AND EQ JUMPDEST ISZERO PUSH2 0x112 JUMPI DUP2 SWAP6 POP PUSH1 0x1 SWAP5 POP JUMPDEST DUP1 PUSH1 0x1 ADD SLOAD PUSH1 0x0 NOT AND DUP9 PUSH1 0x0 NOT AND EQ DUP1 ISZERO PUSH2 0x138 JUMPI POP DUP1 PUSH1 0x0 ADD SLOAD PUSH1 0x0 NOT AND DUP10 PUSH1 0x0 NOT AND EQ JUMPDEST ISZERO PUSH2 0x145 JUMPI DUP2 SWAP4 POP PUSH1 0x1 SWAP3 POP JUMPDEST JUMPDEST DUP2 DUP1 PUSH1 0x1 ADD SWAP3 POP POP PUSH2 0xC1 JUMP JUMPDEST DUP5 ISZERO DUP1 PUSH2 0x15E JUMPI POP DUP3 ISZERO JUMPDEST ISZERO PUSH2 0x16C JUMPI PUSH1 0x0 SWAP7 POP PUSH2 0x1A7 JUMP JUMPDEST PUSH1 0x1 DUP7 PUSH1 0x5 DUP2 LT ISZERO ISZERO PUSH2 0x17B JUMPI INVALID JUMPDEST ADD PUSH1 0x0 JUMPDEST POP DUP5 PUSH1 0x5 DUP2 LT ISZERO ISZERO PUSH2 0x18D JUMPI INVALID JUMPDEST PUSH1 0x20 SWAP2 DUP3 DUP3 DIV ADD SWAP2 SWAP1 MOD JUMPDEST SWAP1 SLOAD SWAP1 PUSH2 0x100 EXP SWAP1 DIV PUSH1 0xFF AND SWAP7 POP JUMPDEST POP POP POP POP POP POP SWAP5 SWAP4 POP POP POP POP JUMP STOP LOG1 PUSH6 0x627A7A723058 SHA3 0xe2 CALLDATACOPY EXTCODESIZE 0xd 0x5c SELFDESTRUCT PUSH11 0x1C4E2614AFC76A73E35801 DELEGATECALL DELEGATECALL 0x4b 0xfa 0xef 0xcc SWAP15 DUP15 0xea PUSH11 0x6D719E2300290000000000 "
		},
		"gasEstimates": {
			"creation": {
				"codeDepositCost": "96200",
				"executionCost": "711605",
				"totalCost": "807805"
			},
			"external": {
				"connectionAllowed(bytes32,bytes32,bytes32,bytes32)": "infinite"
			}
		},
		"methodIdentifiers": {
			"connectionAllowed(bytes32,bytes32,bytes32,bytes32)": "994d790a"
		}
	},
	"abi": [
		{
			"constant": true,
			"inputs": [
				{
					"name": "sl",
					"type": "bytes32"
				},
				{
					"name": "sh",
					"type": "bytes32"
				},
				{
					"name": "pl",
					"type": "bytes32"
				},
				{
					"name": "ph",
					"type": "bytes32"
				}
			],
			"name": "connectionAllowed",
			"outputs": [
				{
					"name": "res",
					"type": "bool"
				}
			],
			"payable": false,
			"type": "function",
			"stateMutability": "view"
		},
		{
			"inputs": [],
			"payable": false,
			"type": "constructor",
			"stateMutability": "nonpayable"
		}
	]
}